:100000000C941B010C944C010C944C010C944C016D
:100010000C944C010C944C010C944C010C944C012C
:100020000C944C010C944C010C944C010C944C011C
:100030000C944C010C944C010C944C010C944C010C
:100040000C944C010C944C010C944C010C944C01FC
:100050000C944C010C944C010C944C010C94F20E39
:100060000C944C010C94660F0C943C0F0C944C01B6
:100070000C944C010C944C010C944C010C944C01CC
:100080000C944C010C944C010C944C010C944C01BC
:100090000C944C010C944C010C944C010C944C01AC
:1000A0000C944C010C944C010C944C010C944C019C
:1000B0000C944C010C944C010C944C010C944C018C
:1000C0000C944C010C944C010C944C010C944C017C
:1000D0000C944C010C944C010C944C010C944C016C
:1000E0000C944C010C94A0020C94C6010C94B80121
:1000F0000C945A020C94D0010C9495010C94990123
:100100000C9483010C94A1010C94A4010C94B401EF
:100110000C94D4010C94C2010C947E010C94AE0199
:100120000C949D010C94CA010C9446020C94680234
:100130000C9437020C940A020C94BC010C943C14ED
:100140000C94AA010C94ED02000022002500280066
:100150002B002E00310034000201000005010801CF
:100160000B0105050505070508080808020202023B
:100170000A0A080804040404010101010101010143
:100180000303030303030303040707070C0C0C0C0E
:100190000C0C0C0C020202020606060606060606F7
:1001A0000B0B0B0B0B0B0B0B010210202008081084
:1001B00020401020408002010201080402010102D7
:1001C00004081020408080402010080402018004B0
:1001D000020180402010080402010804020101020B
:1001E0000408102040800102040810204080000014
:1001F0000A0B02090C0D0E080703040100000000A1
:1002000000000000000000000000000000000000EE
:1002100000000000000000000000121110000000AB
:1002200000000000000000000000000000000000CE
:10023000000000003C1411241FBECFEFDFEFDEBF33
:10024000CDBF00E00CBF14E0A0E0B2E0EEEAFBE2BC
:1002500000E00BBF02C007900D92AE36B107D9F790
:1002600028E0AEE6B4E001C01D92AE35B207E1F77A
:1002700011E0CBE1D1E000E006C021970109802F19
:10028000FE010E946914CA31D10780E00807A9F76E
:100290000E949C0F0C94D5150C940000282F30E080
:1002A000F901E251FE4F9491F901E855FE4F449156
:1002B0002E593E4FF9012491222309F435C0992388
:1002C00011F191509231F8F4E92FF0E08827E459C8
:1002D000FE4F8F4F0C9469149D01A1017E01950181
:1002E00099018301A401AA01AE01B401B801BC01C6
:1002F000C201C6018301CA01D001D40180918000EE
:100300008F7780938000E22FF0E0EE0FFF1FE85B15
:10031000FE4FA591B4918FB7F894EC91611148C04C
:1003200040954E234C938FBF0895809180008F7D20
:10033000E8CF80918000877FE4CF84B58F7784BD3C
:10034000E2CF84B58F7DFBCF8091B0008F77809313
:10035000B000D9CF8091B0008F7DF9CF809190000F
:100360008F7780939000CFCF809190008F7DF9CFD1
:1003700080919000877FF5CF8091A0008F77809348
:10038000A000C1CF8091A0008F7DF9CF8091A00007
:10039000877FF5CF809120018F7780932001B3CFA5
:1003A000809120018F7DF9CF80912001877FF5CF4B
:1003B0004E2BB8CF8230910538F0880F991F880FE7
:1003C000991F05970197F1F708953FB7F894809129
:1003D000560890915708A0915808B091590826B531
:1003E000A89B05C02F3F19F00196A11DB11D3FBF6D
:1003F000BA2FA92F982F8827BC01CD01620F711D3C
:10040000811D911D42E0660F771F881F991F4A9535
:10041000D1F70895AF92BF92CF92DF92EF92FF9201
:100420000F931F93CF93DF936C017B018B01040F1C
:10043000151FEB015E01AE18BF08C017D10759F0B8
:100440006991D601ED91FC910190F081E02DC601FA
:100450001995892B79F7C501DF91CF911F910F91E4
:10046000FF90EF90DF90CF90BF90AF900895FC0188
:10047000538D448D252F30E0842F90E0821B930B09
:10048000541710F0CF96089501970895FC01918DAF
:10049000828D981761F0A28DAE0FBF2FB11D5D96B2
:1004A0008C91928D9F5F9F73928F90E008958FEF54
:1004B0009FEF0895FC01918D828D981731F0828D08
:1004C000E80FF11D858D90E008958FEF9FEF08955F
:1004D000FC01918D228D892F90E0805C9F4F821BC3
:1004E00091098F739927089585E697E00E94680225
:1004F00021E0892B09F420E0822F0895FC01A48DCE
:10050000A80FB92FB11DA35ABF4F2C91848D90E035
:1005100001968F739927848FA689B7892C93A08918
:10052000B1898C91837080648C93938D848D9813A2
:1005300006C00288F389E02D80818F7D8083089535
:10054000EF92FF920F931F93CF93DF93EC0181E023
:10055000888F9B8D8C8D98131AC0E889F9898081CA
:1005600085FF15C09FB7F894EE89FF896083E889FD
:10057000F98980818370806480839FBF81E090E0EF
:10058000DF91CF911F910F91FF90EF900895F62E7C
:100590000B8D10E00F5F1F4F0F731127E02E8C8D16
:1005A0008E110CC00FB607FCFACFE889F98980815B
:1005B00085FFF5CFCE010E947E02F1CFEB8DEC0FCF
:1005C000FD2FF11DE35AFF4FF0829FB7F8940B8F78
:1005D000EA89FB8980818062CFCFCF93DF93EC01E2
:1005E000888D8823B9F0AA89BB89E889F9898C911B
:1005F00085FD03C0808186FD0DC00FB607FCF7CFD7
:100600008C9185FFF2CF808185FFEDCFCE010E94D6
:100610007E02E9CFDF91CF91089580E090E0892BB1
:1006200029F00E94740281110E94000080E090E095
:10063000892B49F080E090E0892B29F00E9400008E
:1006400081110E94000080E090E0892B49F080E059
:1006500090E0892B29F00E94000081110E94000087
:1006600080E090E0892B49F080E090E0892B29F030
:100670000E94000081110C9400000895FC01848107
:100680009581A681B78140815181628173818115F5
:1006900026E3920725E6A20724ECB2073CF01416E5
:1006A0001506160617068CF4B7FF0FC04150510906
:1006B0006109710940835183628373839653A54610
:1006C000B44C84839583A683B78384819581A68166
:1006D000B781408151816281738181302AEC920718
:1006E0002AE9A2072BE3B2073CF477FF14C01816DF
:1006F00019061A061B067CF44F5F5F4F6F4F7F4F42
:1007000040835183628373839A5CAA49BB43848389
:100710009583A683B7830895880F991F880F991F23
:10072000FC01EA5FFB4F828193818F30910571F06C
:1007300040F48230910551F00A9759F090E080E042
:1007400008958332910511F0C797C1F781E090E0D9
:10075000089588E090E00895880F991F880F991FE9
:10076000FC01EA5FFB4F80819181228133812F3030
:10077000310549F048F42230310529F02A3031059D
:1007800011F090E080E008952332310519F027330D
:100790003105B9F7FC01228121FF02C003960895BB
:1007A00080819181089520917304209530E0F901B2
:1007B000EA5FFC4F908190952A5F3D4FD9018C9163
:1007C000409171045091720442505109E3E7F4E002
:1007D00031969F01235734402417350770F4208148
:1007E0009227292F30E0D901AA5FBC4F9C9198270E
:1007F0002A5F3D4FD9018C91EBCF089523E030E083
:100800003093720420937104E3E7F4E0909152076F
:10081000908380588183628308950F931F93582F8C
:10082000577001E010E020E030E004C0000F111F1D
:10083000221F331F5A95D2F723E0969587952A9564
:10084000E1F79927E0915C07F0915D07662321F0BD
:10085000E0916207F0916307E80FF91F808144235C
:1008600029F0082B00831F910F910895009508230C
:10087000F9CFCF92DF92EF92FF920F931F93CF9316
:10088000DF93CDB7DEB789899A89AB89BC894D8959
:100890005E896F89788D098D1A8D2B8D3C8DCD8C5D
:1008A000DE8CEF8CF8A080179107A207B30759F4EC
:1008B0004C195D096E097F091416150616061706F0
:1008C0005CF081E00AC0801B910BA20BB30B1816E1
:1008D00019061A061B06ACF780E0DF91CF911F9135
:1008E0000F91FF90EF90DF90CF9008952F923F925D
:1008F0004F925F926F927F928F929F92AF92BF9230
:10090000CF92DF92EF92FF920F931F93CF93DF93DB
:10091000CDB7DEB7C354D1090FB6F894DEBF0FBE12
:10092000CDBF10E000E0F801EE0FFF1FEE51F94FD0
:100930000190F081E02D309749F041E080818111F4
:1009400001C040E060E0C8010E940D040F5F1F4F2E
:100950000833110541F7E0905307F090540702EA7D
:1009600016E019AF08AF8701005C1F4FF70122EABC
:1009700036E0D9018D919D919D01009729F0DC0110
:100980008D919C919183808332960E171F0789F772
:10099000D12CC12CF601EE0FFF1FEE5CF94F019038
:1009A000F081E02D309749F041E08081811101C054
:1009B00040E061E0C6010E940D04BFEFCB1ADB0AE4
:1009C000E8E3CE16D10431F742EF55E0E0915F073E
:1009D000F09160079F01205C3F4FDA018D919D915E
:1009E000AD01009729F0DC018D919C91918380836A
:1009F0003296E217F30789F7EAECF5E0FBAFEAAFCE
:100A0000F80108E6E00EF11C2AEC35E0D9018D91E1
:100A10009D919D01009729F0DC018D919C9191831E
:100A200080833296EE16FF0689F7E2EAF5E0FDAF25
:100A3000ECAFE0915607F09157079F01205B3F4FC5
:100A400002EA15E0D8018D919D918D01009749F042
:100A5000DC014D915D916D917C9140835183628366
:100A6000738334962E173F0769F7EAE7F5E0FFAF87
:100A7000EEAFE0915907F0915A079F0120563F4F82
:100A80008AE795E0DC01CD90DD90CD01C114D10461
:100A9000F1F0D601EC901196FC90119712960C9102
:100AA000129713961C91139714967C911497159690
:100AB0006C91159716965C91169717964C91E0825B
:100AC000F182028313837483658356834783389648
:100AD0002E173F07B9F6109272041092710480919C
:100AE000780590917905DC01ED91FC910084F18508
:100AF000E02D1995892B09F483C080917805909198
:100B00007905DC01ED91FC910084F185E02D1995CA
:100B10002091710430917204A0917805B09179050B
:100B2000ED91FC9111970084F185E02D281739078C
:100B300068F4CD01199590937204809371048091AB
:100B40007505909176050E94DA01D7CFCD011995F0
:100B5000813091400CF054C08091780590917905D6
:100B6000DC01ED91FC910084F185E02D199506974B
:100B70000CF446C043E7842E44E0942E8401E090B8
:100B80007104F0907204C801835794408E159F053C
:100B900078F48091780590917905DC01ED91FC91D4
:100BA0000284F385E02D1995F80181938F01E7CF39
:100BB000109174048FEB810F853080F00E94D30375
:100BC00097012D583B4FF90132974081215031094F
:100BD000D9012C91342F2817390791F4909173047F
:100BE00080915207981709F4CDC0809178059091B3
:100BF0007905DC01ED91FC910680F781E02D1995D6
:100C000040915C0750915D0730E020E0F901EE0F64
:100C1000FF1FEE51F94F0190F081E02D309799F0D0
:100C2000D90183E0B695A7958A95E1F7A40FB51F82
:100C30008C9190E0622F677002C0959587956A95B8
:100C4000E2F7817080832F5F3F4F28333105F1F643
:100C50008091530790915407BC01605C7F4FDC0189
:100C6000E8ADF9AD21913191F9AFE8AF211531052A
:100C700031F04D915C911197F901518340831296A7
:100C80006A177B0769F7FB0188599F4FAAADBBAD77
:100C90004D915D91BBAFAAAF4115510529F020815F
:100CA0003181DA012D933C9332968E179F0771F7AD
:100CB000E0915607F0915707CF01805B9F4FACAD95
:100CC000BDAD2D913D91BDAFACAF2115310551F0BA
:100CD0004081518162817381D9014D935D936D9300
:100CE0007C93139734968E179F0749F7E091590725
:100CF000F0915A07CF0180569F4FAEADBFADED903A
:100D0000FD90BFAFAEAFE114F104F1F000811181AD
:100D1000728163815481458136812781D7010C938B
:100D200011961C93119712967C93129713966C93BD
:100D3000139714965C93149715964C9315971696E3
:100D40003C93169717962C9338968E179F07A9F603
:100D5000CD5BDF4F0FB6F894DEBF0FBECDBFDF9186
:100D6000CF911F910F91FF90EF90DF90CF90BF90A8
:100D7000AF909F908F907F906F905F904F903F903B
:100D80002F900895B2E0EB1AF108F0927204E0920D
:100D900071048091750490917604382E292E60900C
:100DA000770470907804762467247624D0907704B2
:100DB0002091790430E01F3009F48AC5A0F5133082
:100DC00009F480C158F4113009F4F5C3123009F464
:100DD00084C461E070E0812F90E022C0153009F4F6
:100DE00057C508F40BC51630A1F72091550780911F
:100DF000580790E0880F991FE22FF0E08E0F9F1F99
:100E000040915B0704E0409FA0011124480F591F47
:100E10002416350608F449C062E070E086E090E0F0
:100E20000E94FE034FC0123409F4E2C698F4103158
:100E300009F462C2113469F684E090E09093720480
:100E40008093710410937404109275048DE0809364
:100E5000760438C0143409F445C608F4DDC51534E9
:100E600009F0B7CF8D3ABEED9B0709F0A8C71092E5
:100E7000700485E4809374048EE78093750481E2A6
:100E8000ECE4F4E0DE01119601900D928A95E1F711
:100E9000FE013196A6E7B4E081919D0123573440CD
:100EA000882309F49AC78D93F7CF2E163F06D8F4FE
:100EB000220C331CE0915307F0915407E20DF31D0F
:100EC00071826082809171049091720402968130E7
:100ED000914008F45AC58091740464E070E090E099
:100EE0000E94FE0352C528163906F0F5A30170E0F2
:100EF00060E0809156079091570720FC1CC091013B
:100F00002E1B3F0BF901EE0FFF1FEC7FF370E80F74
:100F1000F91F80819181A281B381AA27BB27BA01E1
:100F200055274427842B952BA62BB72B80839183A1
:100F3000A283B383C7CFE095F095E20DF31DEE0FCA
:100F4000FF1FEC7FF370E80FF91F608071808280D3
:100F50009380662477244629572968297929408374
:100F6000518362837383AECF910123703327430192
:100F7000B12CA12CC12CD12C7601E0915907F09114
:100F80005A072115310549F5281A390A220C331C54
:100F900038EF232237E03322E20DF31D50806180C9
:100FA00072801381B481A581940140E050E060E03B
:100FB00070E080E090E000E30E9471142529208316
:100FC000632A6182742A7282152B1383B62BB48331
:100FD000A72BA5838683978375CF2130310541F5F3
:100FE000AFEF2A1A3A0A281A390A220C331CB8EF32
:100FF0002B22B7E03B22E20DF31D5080618072800E
:101000001381B681A7819401A501B601C70100E251
:101010000E947114522A5082632A6182742A728259
:10102000152B1383648375838B2B86839A2BD3CFE5
:101030002230310529F502E0200E311C281A390A28
:10104000220C331C18EF212217E03122E20DF31D90
:101050005080618074801581B681A7819401A501BB
:10106000B601C70100E10E947114522A5082632A1E
:10107000618242835383762A7482172B1583D4CFDF
:1010800023E0220E311C281A390A220C331C38EFB7
:10109000232237E03322E20DF31D52814381348154
:1010A000258196818781808291825A2952834B299A
:1010B00043833C2934832D2925839E2996838F29B8
:1010C000878300CFC301019763E070E08D379105FE
:1010D000C8F46101C60CD71C40915507E091580730
:1010E000F0E0EE0FFF1FE40FF11D80915B07A4E01D
:1010F0008A9FC00111248E0F9F1FC816D90628F0A1
:1011000062E070E083E090E08BCE660C771CC30158
:1011100003969093720480937104A3E7B4E0119650
:101120009D01235734402817390710F41C92F7CF3C
:1011300093E090937404835080937504E090590772
:10114000F0905A07A0905607B0905707A091530708
:10115000B0915407BAA7A9A7A42FB0E0BBABAAAB24
:1011600083E090E02C014E1A5F0A3D016094709478
:10117000C214D30409F4A6CEAAA9BBA92A163B0619
:1011800060F49101220F331FA9A5BAA52A0F3B1FB6
:10119000D9018C9111963C911AC02E163F0670F51C
:1011A00020FC22C0C101AAA9BBA98A1B9B0B880FE6
:1011B000991F8C7F93708A0D9B1DDC014D915D9171
:1011C0006D917C91AB0166277727842F352FD40151
:1011D00013963C93139714968C93B2E08B0E911C4C
:1011E0000FEF201A300AC4CF9301220D331D220FB6
:1011F000331F2C7F33702A0D3B1DCACF8101037032
:1012000011270115110521F581010E1B1F0B000F80
:10121000111F087F17700E0D1F1DD8012C911196FC
:101220003C91119712964C91129713965C911397DB
:1012300014966C91149715967C91159716968C912F
:10124000169717969C9100E30E948C14822FBFCFB3
:101250000130110511F50E1B1F0B020D131D000FA0
:10126000111F087F17700E0D1F1DD8012C911196AC
:101270003C91119712964C91129713965C9113978B
:1012800014966C91149715967C91159716968C91DF
:10129000169717969C9100E2D7CF0230110511F5F1
:1012A0000E1B1F0B020D131D000F111F087F17705F
:1012B0000E0D1F1DD8012C9111963C91119712967D
:1012C0004C91129713965C91139714966C91149706
:1012D00015967C91159716968C91169717969C915A
:1012E00000E1B2CF9201220D331D220F331F287F60
:1012F00037702E0D3F1D4CCFC30101978B379105E1
:1013000030F4C301880F991F2817390729F063E0CB
:1013100070E080E190E084CDD101A60DB71DBDAB9A
:10132000ACAB8091550740905807512C440C551C8C
:10133000A82EB12C4A0C5B1C20915B07B4E02B9FBC
:1013400090011124240D351DECA9FDA9E217F30726
:1013500018F062E070E0DDCF26E030E030937204F8
:1013600020937104109374043092750420927604D3
:1013700010927704609278046090590770905A0731
:10138000C0905607D0905707DFAACEAA40915307C6
:10139000509154079101220F331F7A01E20EF31E80
:1013A000FBAAEAAAD101A419B509C50180959095B7
:1013B000FC01E40DF51D2296FFAFEEAF229762010E
:1013C000CA18DB082496DFAECEAE2497ECA8FDA8A1
:1013D0002E143F0409F4D9C2F40147818085542FAB
:1013E000482F2A143B0488F4EAA9FBA951834083BF
:1013F000EAA9FBA93296FBABEAAB1196FFEF2F1AD5
:101400003F0A02E0800E911CE1CF24143504C8F598
:1014100070E060E020FC20C02496EEADFFAD249784
:10142000EA0FFB1FEE0FFF1FEC7FF370CEA8DFA8C3
:10143000EC0DFD1D0081118122813381222733278C
:10144000BA0155274427402B512B622B732B408325
:10145000518362837383CCCF2296EEADFFAD22978A
:10146000EA0FFB1FEE0FFF1FEC7FF370EEA8FFA843
:10147000EE0DFF1D0081118122813381002711278C
:10148000E2CFC101837099276A01F12CE12C00E0C1
:1014900010E09801C9A6DAA6EBA6FCA60DA71EA728
:1014A0002FA738ABFD01009741F5EE0FFF1FE87F36
:1014B000F770E60DF71DD080D9AAC180D280E380F5
:1014C000F480158129A53AA540E050E060E070E085
:1014D00080E090E000E30E94711409A9202B208392
:1014E0003C2931834D2942835E295383F62AF482B5
:1014F000172B1583868397837BCF8130910541F528
:101500003196EE0FFF1FE87FF770E60DF71D108193
:1015100019ABC180D280E380F680178129A53AA556
:1015200040E050E060E070E080E090E000E20E9487
:10153000711409A9202B20833C2931834D29428332
:10154000E52AE382648375838F298683912BD3CF29
:10155000029729F53296EE0FFF1FE87FF770E60D30
:10156000F71D108119ABC180D480E580F68017810A
:1015700029A53AA540E050E060E070E080E090E00E
:1015800000E10E94711409A9202B20833C2931839A
:1015900042835383D62AD482E72AE582D5CF339675
:1015A000EE0FFF1FE87FF770E60DF71D19A51083FA
:1015B0002AA521831DCFC301019763E070E0803D20
:1015C000974068F520915E07C101860D971D62E086
:1015D00070E02817190618F1C30113E09695879556
:1015E0001A95E1F79C012D5F3F4F309372042093D1
:1015F0007104930127703327232B29F004969093CD
:101600007204809371048091710490917204E3E7F5
:10161000F4E0813021E0920728F064E070E081E09E
:1016200090E0FECB31969F012357344028173907AD
:1016300010F41082F7CF91E090937404835080935C
:10164000750400915C0710915D0770E060E020E098
:10165000C12CD12C7601C394D701C601022E04C03F
:10166000880F991FAA1FBB1F0A94D2F789A79AA7B0
:10167000ABA7BCA7FB0133E0F695E7953A95E1F7F8
:10168000EA58FB4F3081A101A3E056954795AA95F2
:10169000E1F74F715527400F511FDA014C9150E08F
:1016A000B22DB77002C055954795BA95E2F789A556
:1016B00040FF0FC0832B80832F5F283009F420E088
:1016C000EFEF2E1A3E0A6F5F7F4F6616770621F600
:1016D000F9CB809538233083EFCFC301019763E0C6
:1016E00070E0803D974068F520916407C101860D48
:1016F000971D62E070E02817190618F1C30123E076
:10170000969587952A95E1F79C012D5F3F4F309381
:10171000720420937104930127703327232B29F03F
:101720000496909372048093710480917104909157
:101730007204E3E7F4E0813001E0900728F064E010
:1017400070E082E090E06CCB31969F0123573440EB
:101750002817390710F41082F7CF92E090937404A1
:10176000835080937504609162077091630750E025
:1017700040E010E0C12CD12C7601C394D701C60102
:10178000012E04C0880F991FAA1FBB1F0A94D2F70D
:1017900089A79AA7ABA7BCA7FA0103E0F695E7953E
:1017A0000A95E1F7EA58FB4F0081910183E03695F5
:1017B00027958A95E1F7260F372F311DD9012C91F6
:1017C00030E0B22DB77002C035952795BA95E2F793
:1017D00089A520FF0FC0802B80831F5F183009F47C
:1017E00010E0EFEF2E1A3E0A4F5F5F4F641675064A
:1017F00029F668CB809508230083EFCFC3010197BA
:1018000063E070E08D37910550F420916107C101CC
:10181000860D971D2817190628F462E070E084E011
:1018200090E0FECAC301880F991F0396909372043B
:1018300080937104E3E7F4E031969F01235734402D
:101840002817390710F41082F7CF94E090937404AE
:10185000835080937504220C331CE0915F07F09154
:101860006007E20DF31D01E0601A710812E0810EBD
:10187000911C2FEF6216720609F424CB80819181AE
:101880003296D40111969C93119712968C93EBCFBC
:101890006114BFEF7B0629F063E070E0611471040E
:1018A00049F480915E078150990B8215930528F4C5
:1018B00062E070E085E090E0B3CA41E06114EFEFD0
:1018C0007E0609F040E060E0C1010E940D04FACA02
:1018D000A301F3E056954795FA95E1F7842FB301FC
:1018E00067707727672B11F081E0840FA3014150C7
:1018F0005109403B574018F48217130629F063E062
:1019000070E08FE090E08CCA20915E07C101860DE7
:10191000971D2817190618F462E070E0F2CF86E0F0
:1019200090E090937204809371048FE0809374042C
:101930003092750420927604709277046092780455
:1019400010E000E0F12CF80173E0F695E7957A9548
:10195000E1F7ED58FB4F478150E00F2C02C0559541
:1019600047950A94E2F7417060E0C101800F911F32
:101970000E940D04F394E8E0CE2EFC1001C0F12C7F
:101980000F5F1F4F60167106F1F600917104109100
:101990007204780122E0E20EF11CF0927204E092EF
:1019A00071040E94D303F801ED58FB4F90838183AB
:1019B0008091770587FD09C061E00E944E0180910A
:1019C0007305909174050E94DA01809178059091D9
:1019D0007905DC01ED91FC910280F381E02DA701F6
:1019E00063E774E019958091780590917905DC01A1
:1019F000ED91FC910680F781E02D1995809173059A
:101A0000909174050E94DA018091770587FDF8C8EE
:101A100060E00E944E01F4C80DE02016310408F089
:101A200056C01DE06116710408F051C062147304C1
:101A300008F44DC071016EE7A62E64E0B62ED12CDD
:101A4000C12CC7010E948C034C018601080F191F8D
:101A5000C8010B9681309140C0F5C7010E94AC03CC
:101A6000A401BC01C5010E94CC15A80CB91CC7017A
:101A70000196680117016816790628F5C8010796CE
:101A8000909372048093710483E4809374048EE7CE
:101A90008093750410927604209277048091440814
:101AA000909145082091460830914708309378047A
:101AB0002093790490937A0480937B0410937C04A0
:101AC00000937D04FFC97C01BCCF8601D7CF83E0A2
:101AD00090E0909372048093710483E48093740483
:101AE00081E828C035E123163104D8F4CE010196EF
:101AF0002C01FC01D12CC12C92E0890E911C2C14DC
:101B00003D04D9F0D40112968C91129713969C91B2
:101B100089279827892781939193BFEFCB1ADB0AF6
:101B2000EBCF83E090E09093720480937104109364
:101B3000740482E880937504C5C9B12CA12C19A640
:101B4000712C612C0BE010E0CA14DB0469F1F20186
:101B5000E190F1902F01FDE0EF16F10440F083E0F9
:101B600090E0909372048093710484E4B7CFC7012E
:101B70000E948C034C011801280E391E21E0221608
:101B8000320690F4C7010E94AC03A401BC01C80155
:101B90008D589B4F0E94CC15680C791C3FEFA31AFF
:101BA000B30AE9A68101D0CF1093720400937104A7
:101BB00084E4809374048EE7809375041092760415
:101BC000C9A4C0927704809144089091450820915F
:101BD0004608309147083093780420937904909315
:101BE0007A0480937B0470927C0460927D046AC9BD
:101BF0000DE02016310450F480917804909179041E
:101C00009827892798278A3F910540F083E090E044
:101C1000909372048093710482E460CF8101000F7D
:101C2000111F000F111FF801EA5FFB4FE280F380E4
:101C3000809170048130F9F0F801EA5FFB4F008178
:101C40001181D11038C0FFE0EF16F10409F4B1C0E2
:101C500008F09EC032E0E316F10409F4A6C08AE061
:101C6000E816F104D9F5D80118968C9118978D7F54
:101C700018968C9333C020E1E216F104E9F2C10119
:101C80000E948C039C0136952795FC01ED58FB4F73
:101C9000A3E7B4E03197CD018357944082179307AF
:101CA00058F617968C911797978117969C931797CC
:101CB00087831196EFCFC1010E948C036C013FE036
:101CC000E316F10409F43FC0A0F492E0E916F10430
:101CD00061F1AAE0EA16F10409F44FC083E090E054
:101CE000909372048093710482E4809374048EE76D
:101CF00021CFB3E2EB16F10489F1E7E3EE16F1042C
:101D000069F7A6016AE774E0D8018D919C910E9461
:101D1000CC15A6016AE774E0C80103960E94CC15B1
:101D2000F801828182608283D9CFA6016AE774E0DC
:101D3000C8010E94CC15D80111968C911197826030
:101D400011968C93CBCFAC016AE774E0C8010E9476
:101D5000CC15F801818182608183C0CFA6016AE73A
:101D600074E0C80103960E94CC15D80112968C919C
:101D70001297826012968C93B1CFA6016AE774E045
:101D8000C8010E94CC15F801808582608087A6CFAB
:101D900093E2E916F10429F0A7E3EA16F10409F049
:101DA0009DCFF80182818D7FBECFF80181818D7F2B
:101DB000D3CFD80111968C9111978D7FC1CF8E3DD5
:101DC0009D4A21F481E08093700453C883E090E041
:101DD00090937204809371044CC8309372042093E2
:101DE000710470C81F920F920FB60F9211242F9397
:101DF0003F938F939F93AF93BF938091520890919D
:101E00005308A0915408B09155083091510823E02F
:101E1000230F2D3758F50196A11DB11D20935108B0
:101E20008093520890935308A0935408B093550898
:101E30008091560890915708A0915808B091590880
:101E40000196A11DB11D8093560890935708A09349
:101E50005808B0935908BF91AF919F918F913F91CE
:101E60002F910F900FBE0F901F90189526E8230F0B
:101E70000296A11DB11DD2CF1F920F920FB60F92E5
:101E800011240BB60F922F933F934F935F936F9351
:101E90007F938F939F93AF93BF93EF93FF9385E6C9
:101EA00097E00E947E02FF91EF91BF91AF919F91C9
:101EB0008F917F916F915F914F913F912F910F90F3
:101EC0000BBE0F900FBE0F901F9018951F920F9290
:101ED0000FB60F9211240BB60F922F938F939F93EF
:101EE000EF93FF93E0917507F09176078081E09181
:101EF0007B07F0917C0782FD1DC0908180917E0759
:101F00008F5F8F7320917F07821741F0E0917E07EA
:101F1000F0E0EB59F84F958F80937E07FF91EF919A
:101F20009F918F912F910F900BBE0F900FBE0F902E
:101F30001F9018958081F2CFCF93DF93CDB7DEB796
:101F4000A8970FB6F894DEBF0FBECDBF789484B5C6
:101F5000826084BD84B5816084BD85B5826085BDA5
:101F600085B5816085BD80916E00816080936E0033
:101F70001092810080918100826080938100809125
:101F800081008160809381008091800081608093D6
:101F900080008091B10084608093B1008091B00096
:101FA00081608093B0008091910082608093910065
:101FB0008091910081608093910080919000816078
:101FC000809390008091A10082608093A100809115
:101FD000A10081608093A1008091A0008160809326
:101FE000A0008091210182608093210180912101D4
:101FF0008160809321018091200181608093200184
:1020000080917A00846080937A0080917A00826067
:1020100080937A0080917A00816080937A00809129
:102020007A00806880937A001092C10081E08093EA
:102030000208809304081092060810920808109273
:10204000090810920A0810920B0810920C081092BE
:102050000D0810920E0810920F081092110810929D
:102060001308109214081092150810921608109276
:102070001708109218081092190810921A08109256
:102080001C0810921E08109220081092210810922D
:10209000220810922308109224081092250810920A
:1020A0002608109227081092290810922A081092E8
:1020B0002B0810922C0810922D0810922E081092C6
:1020C0002F0810923008109232084FE654E05093D7
:1020D00035084093340810926F042EE634E03093B4
:1020E00039082093380810926E04509333064093B9
:1020F00032063093E5062093E406E0917507F091EF
:10210000760792E09083E0917107F0917207108258
:10211000E0917307F091740790E1908310927D072E
:10212000E0917907F0917A0796E09083E091770744
:10213000F0917807908190619083E0917707F0911A
:102140007807908198609083E0917707F091780705
:10215000908190689083E0917707F0917807908163
:102160009F7D908325E637E03093790520937805AD
:102170009FEF909377052EEE32E030937605209313
:10218000750521E43AE0309374052093730580933C
:10219000520784E38093550784E180935807809326
:1021A0005B0788E380935E0790E2909361078093DA
:1021B000640787E090E00E94A71490935D078093E6
:1021C0005C07009709F451C017E0FC01212F119220
:1021D0002A95E9F788E690E00E94A71490935407A7
:1021E00080935307009709F440C028E6FC01119240
:1021F0002A95E9F780E590E00E94A714909357078D
:1022000080935607009789F120E5FC0111922A95E9
:10221000E9F780EA90E00E94A71490935A07809310
:102220005907009711F120EAFC0111922A95E9F76C
:1022300087E090E00E94A714909363078093620761
:10224000009799F0FC0111921A95E9F780E490E06B
:102250000E94A7149093600780935F07009729F06E
:1022600020E4FC0111922A95E9F710E000E0C80192
:10227000880F991F9C012E51394F7901F9018081F6
:102280009181892B49F481E090E00E94A714F70125
:1022900091838083FC0110820F5F1F4F083311056B
:1022A00031F7E0905307F0905407E2EAF6E090E04F
:1022B00080E021913191232B39F4DF0112979701AE
:1022C000280F391F2D933C9302968034910589F78E
:1022D000D12CC12C8601000F111F0E5C194FF80183
:1022E00080819181892B49F481E090E00E94A714BC
:1022F000F80191838083FC011082FFEFCF1ADF0A7F
:1023000028E3C216D10431F720915F0730916007AE
:10231000E2EFF5E090E080E041915191452B39F4F6
:10232000DF011297A901480F591F4D935C93029644
:102330008034910589F7EAECF5E090E080E030E444
:10234000E30EF11C21913191232B39F4DF01129717
:102350009701280F391F2D933C93029688329105DF
:1023600089F74091560750915707E2EAF5E090E06F
:1023700080E021913191232B59F4DF0112979C01C8
:10238000220F331F220F331F240F351F2D933C9331
:1023900001968431910569F74091590750915A0788
:1023A000EAE7F5E090E080E021913191232B61F4A0
:1023B000DF0112979C0163E0220F331F6A95E1F75A
:1023C000240F351F2D933C9301968431910561F7BD
:1023D00080E29EE4A0E0B0E08093490890934A0830
:1023E000A0934B08B0934C080E94E50160934D0800
:1023F00070934E0880934F089093500811E002E0CC
:10240000C12CD12C7601C3940E94E50180904D0827
:1024100090904E08A0904F08B09050086819790924
:102420008A099B098090490890904A08A0904B081F
:10243000B0904C08681579058A059B0508F4AFC073
:102440008091440890914508A0914608B0914708B2
:102450000196A11DB11D8093440890934508A09357
:102460004608B09347088091070881FD07C081E0C6
:1024700090911108911180E08093060880911008D6
:1024800081FD10C0C0920808D0920908E0920A08A5
:10249000F0920B0810920C0810920D0810920E0882
:1024A00010920F0880910508827090910208911196
:1024B0008FC0811102C010920408809111088823F6
:1024C00059F08091330881FD07C081E09091320876
:1024D000911180E08093320880913A0881FD07C015
:1024E000E0913808F091390880913208808380911A
:1024F000400890914108A0914208B0914308AC0176
:10250000BD01535D6E4C7E4F4115FAEC5F07FAE951
:102510006F07FBE37F0708F08CC14093400850939E
:10252000410860934208709343080E9476048091AA
:102530004808811118C0109348080E94E501809056
:10254000490890904A08A0904B08B0904C08681930
:1025500079098A099B0960934D0870934E0880930E
:102560004F089093500880914D0890914E08A0918B
:102570004F08B09150084091490850914A08609125
:102580004B0870914C08840F951FA61FB71F8093AE
:102590004D0890934E08A0934F08B09350080E94A6
:1025A000E50180904D0890904E08A0904F08B090A3
:1025B0005008681979098A099B09603177428105B9
:1025C000910510F00E94760488950E940D031CCF9F
:1025D000811102C0109304088091280881FD09C070
:1025E00088E0ECE3F8E0A0E2B8E001900D928A9573
:1025F000E1F730901C088091060831101EC09091C0
:102600001E08911136C18823D1F080911D0881FFE9
:1026100010931C088091120881FF1092110880917C
:10262000310881FD2AC088E0E0E2F8E0A9E2B8E0E4
:1026300001900D928A95E1F720C0811127C0809109
:102640001B0881FD10C010921308109214081092FC
:102650001508109216081092170810921808109278
:10266000190810921A088091120881FF109211081F
:1026700080911D0881FF10921C0880911F0881FD28
:102680001CCF8091060880931E0817CF81E0381276
:10269000F4CF40902D0850902E0860902F08709035
:1026A000300880910C0890910D08A0910E08B0910F
:1026B0000F08409108085091090860910A0870912C
:1026C0000B088090290890902A08A0902B08B090C1
:1026D0002C08480D591D6A1D7B1D498B5A8B6B8B2D
:1026E0007C8B840D951DA61DB71D8D8B9E8BAF8B8E
:1026F000B88FCE0141960E943E0388E0FE0171969C
:10270000DE01599601900D928A95E1F788E0FE016D
:102710007996DE01919601900D928A95E1F700D0AD
:1027200000D01F921F92ADB7BEB7119688E0E0E2CD
:10273000F8E001900D928A95E1F700D000D01F9249
:102740001F92ADB7BEB7119688E0FE01B196019019
:102750000D928A95E1F71F920F931F921F923F925D
:102760000E9439040FB6F894DEBF0FBECDBF909122
:102770001B08882391F080911D0881FF00931C089D
:102780008091120881FF1093110888E0E8E0F8E0DA
:1027900091FD73CFA3E1B8E04BCF91FD6ECF809157
:1027A000240890912508A0912608B09127088090D0
:1027B0002D0890902E08A0902F08B09030084091DE
:1027C00020085091210860912208709123084090C0
:1027D000290850902A0860902B0870902C08441902
:1027E000550966097709498B5A8B6B8B7C8B881945
:1027F0009909AA09BB098D8B9E8BAF8BB88FCE012F
:1028000041960E943E0388E0FE017196DE0111961A
:1028100001900D928A95E1F788E0FE013196DE0184
:10282000199601900D928A95E1F788E0FE0139969C
:10283000B1CF40913C0850913D0860913E087091A5
:102840003F089D59A946BA43809340089093410898
:10285000A0934208B09343084F5F5F4F6F4F7F4F85
:1028600040933C0850933D0860933E0870933F08A6
:102870005CCE811102CFE3CEE5E6F7E0138212824F
:1028800088EE93E0A0E0B0E084839583A683B783CD
:102890008EE394E09183808385EC90E09587848734
:1028A00084EC90E09787868780EC90E0918B808B1A
:1028B00081EC90E0938B828B82EC90E0958B848B03
:1028C00086EC90E0978B868B118E128E138E148E71
:1028D0000895EE0FFF1F881F8BBF0790F691E02D24
:1028E0001994002E083090F0982F872F762F652F9F
:1028F000542F432F322F22270850F4CF220F331F9B
:10290000441F551F661F771F881F991F0A95B2F72E
:10291000002D089597FD1094002E083098F008506F
:10292000232F342F452F562F672F782F892F912D46
:10293000F4CF159497958795779567955795479513
:10294000379527950A95AAF71124002D08950F931E
:102950001F93CF93DF938230910510F482E090E0D3
:10296000E0915C08F0915D0830E020E0B0E0A0E08C
:10297000309799F42115310509F44AC0281B390B09
:1029800024303105D8F58A819B816115710589F163
:10299000FB0193838283FE0111C04081518102813A
:1029A000138148175907E0F04817590799F4109711
:1029B00061F012960C93129713961C933296CF01E6
:1029C000DF91CF911F910F91089500935C081093B0
:1029D0005D08F4CF2115310551F04217530738F047
:1029E000A901DB019A01BD01DF01F801C1CFEF01AF
:1029F000F9CF90935D0880935C08CDCFFE01E20F84
:102A0000F31F819391932250310939832883D7CFC3
:102A100020915A0830915B08232B41F42091020247
:102A20003091030230935B0820935A0820910002F2
:102A3000309101022115310541F42DB73EB7409187
:102A4000040250910502241B350BE0915A08F091C5
:102A50005B08E217F307A0F42E1B3F0B281739077A
:102A600078F0AC014E5F5F4F2417350748F04E0FEA
:102A70005F1F50935B0840935A08819391939FCFB7
:102A8000F0E0E0E09CCFCF93DF930097E9F0FC010A
:102A9000329713821282A0915C08B0915D08ED011B
:102AA00030E020E01097A1F420813181820F931F44
:102AB00020915A0830915B082817390709F061C046
:102AC000F0935B08E0935A08DF91CF910895EA01F3
:102AD000CE17DF07E8F54A815B819E01411551055C
:102AE000B1F7E901FB83EA8349915991C40FD51FDE
:102AF000EC17FD0761F4808191810296840F951F88
:102B0000E90199838883828193819B838A83F0E0A2
:102B1000E0E012968D919C9113970097B9F52D9155
:102B20003C911197CD010296820F931F20915A0874
:102B300030915B082817390739F6309751F5109214
:102B40005D0810925C08B0935B08A0935A08BCCF54
:102B5000D383C28340815181840F951FC817D90741
:102B600061F44E5F5F4F88819981480F591F5183EF
:102B700040838A819B81938382832115310509F0EB
:102B8000B0CFF0935D08E0935C089ECFFD01DC01BF
:102B9000C0CF13821282D7CFFB01DC0102C00190AB
:0E2BA0000D9241505040D8F70895F894FFCFA1
:102BAE0000005E08800000C0C101C30302C2C60659
:102BBE0007C705C5C404CC0C0DCD0FCFCE0E0ACA67
:102BCE00CB0BC90908C8D81819D91BDBDA1A1EDEB7
:102BDE00DF1FDD1D1CDC14D4D515D71716D6D21267
:102BEE0013D311D1D010F03031F133F3F23236F677
:102BFE00F737F53534F43CFCFD3DFF3F3EFEFA3A27
:102C0E003BFB39F9F83828E8E929EB2B2AEAEE2EB6
:102C1E002FEF2DEDEC2CE42425E527E7E62622E226
:102C2E00E323E12120E0A06061A163A3A26266A676
:102C3E00A767A56564A46CACAD6DAF6F6EAEAA6AE6
:102C4E006BAB69A9A86878B8B979BB7B7ABABE7E36
:102C5E007FBF7DBDBC7CB47475B577B7B67672B2E6
:102C6E00B373B17170B05090915193535292965676
:102C7E005797559594549C5C5D9D5F9F9E5E5A9AA6
:102C8E009B5B99595898884849894B8B8A4A4E8E36
:102C9E008F4F8D4D4C8C44848545874746868242A6
:102CAE0043834181804000C1814001C0804101C009
:102CBE00804100C1814001C0804100C1814000C1FE
:102CCE00814001C0804101C0804100C1814000C1EE
:102CDE00814001C0804100C1814001C0804101C0DE
:102CEE00804100C1814001C0804100C1814000C1CE
:102CFE00814001C0804100C1814001C0804101C0BE
:102D0E00804100C1814000C1814001C0804101C0AD
:102D1E00804100C1814001C0804100C1814000C19D
:102D2E00814001C0804101C0804100C1814000C18D
:102D3E00814001C0804100C1814001C0804101C07D
:102D4E00804100C1814000C1814001C0804101C06D
:102D5E00804100C1814001C0804100C1814000C15D
:102D6E00814001C0804100C1814001C0804101C04D
:102D7E00804100C1814001C0804100C1814000C13D
:102D8E00814001C0804101C0804100C1814000C12D
:102D9E00814001C0804100C1814001C0804101C01D
:102DAE00804100C1814002080F0004080F00060890
:102DBE000F0008080A0011080F0013080A001C086B
:102DCE0002001E080F0020080A0029080A00320817
:102DDE000F00340823003808370000000000A0025E
:102DEE000A023702ED02680246025A023061653469
:102DFE0062343536323039333735343063643764C4
:0E2E0E006131353430303432306631660000C8
:00000001FF
